{
  "_format": "hh3-artifact-1",
  "contractName": "ResearchRegistry",
  "sourceName": "contracts/ResearchRegistry.sol",
  "abi": [
    {
      "inputs": [
        {
          "internalType": "string",
          "name": "_fileHash",
          "type": "string"
        }
      ],
      "name": "getRecord",
      "outputs": [
        {
          "internalType": "string",
          "name": "",
          "type": "string"
        },
        {
          "internalType": "string",
          "name": "",
          "type": "string"
        },
        {
          "internalType": "address",
          "name": "",
          "type": "address"
        },
        {
          "internalType": "uint256",
          "name": "",
          "type": "uint256"
        }
      ],
      "stateMutability": "view",
      "type": "function"
    },
    {
      "inputs": [
        {
          "internalType": "string",
          "name": "",
          "type": "string"
        }
      ],
      "name": "records",
      "outputs": [
        {
          "internalType": "string",
          "name": "fileHash",
          "type": "string"
        },
        {
          "internalType": "string",
          "name": "ipfsCID",
          "type": "string"
        },
        {
          "internalType": "address",
          "name": "owner",
          "type": "address"
        },
        {
          "internalType": "uint256",
          "name": "timestamp",
          "type": "uint256"
        }
      ],
      "stateMutability": "view",
      "type": "function"
    },
    {
      "inputs": [
        {
          "internalType": "string",
          "name": "_fileHash",
          "type": "string"
        },
        {
          "internalType": "string",
          "name": "_ipfsCID",
          "type": "string"
        }
      ],
      "name": "registerPaper",
      "outputs": [],
      "stateMutability": "nonpayable",
      "type": "function"
    }
  ],
  "bytecode": "0x6080604052348015600e575f5ffd5b5061073d8061001c5f395ff3fe608060405234801561000f575f5ffd5b506004361061003f575f3560e01c806311dd884514610043578063541e771d1461006f5780637134382c14610082575b5f5ffd5b6100566100513660046104a4565b610097565b604051610066949392919061050c565b60405180910390f35b61005661007d3660046104a4565b610226565b61009561009036600461054d565b61036e565b005b6060805f5f5f5f866040516100ac91906105b2565b90815260200160405180910390206040518060800160405290815f820180546100d4906105c8565b80601f0160208091040260200160405190810160405280929190818152602001828054610100906105c8565b801561014b5780601f106101225761010080835404028352916020019161014b565b820191905f5260205f20905b81548152906001019060200180831161012e57829003601f168201915b50505050508152602001600182018054610164906105c8565b80601f0160208091040260200160405190810160405280929190818152602001828054610190906105c8565b80156101db5780601f106101b2576101008083540402835291602001916101db565b820191905f5260205f20905b8154815290600101906020018083116101be57829003601f168201915b505050918352505060028201546001600160a01b0316602080830191909152600390920154604091820152825191830151908301516060909301519199909850919650945092505050565b80516020818301810180515f8252928201919093012091528054819061024b906105c8565b80601f0160208091040260200160405190810160405280929190818152602001828054610277906105c8565b80156102c25780601f10610299576101008083540402835291602001916102c2565b820191905f5260205f20905b8154815290600101906020018083116102a557829003601f168201915b5050505050908060010180546102d7906105c8565b80601f0160208091040260200160405190810160405280929190818152602001828054610303906105c8565b801561034e5780601f106103255761010080835404028352916020019161034e565b820191905f5260205f20905b81548152906001019060200180831161033157829003601f168201915b50505050600283015460039093015491926001600160a01b031691905084565b6040805160808101825283815260208101839052338183015242606082015290515f9061039c9085906105b2565b908152604051908190036020019020815181906103b9908261064c565b50602082015160018201906103ce908261064c565b5060408201516002820180546001600160a01b0319166001600160a01b039092169190911790556060909101516003909101555050565b634e487b7160e01b5f52604160045260245ffd5b5f82601f830112610428575f5ffd5b813567ffffffffffffffff81111561044257610442610405565b604051601f8201601f19908116603f0116810167ffffffffffffffff8111828210171561047157610471610405565b604052818152838201602001851015610488575f5ffd5b816020850160208301375f918101602001919091529392505050565b5f602082840312156104b4575f5ffd5b813567ffffffffffffffff8111156104ca575f5ffd5b6104d684828501610419565b949350505050565b5f81518084528060208401602086015e5f602082860101526020601f19601f83011685010191505092915050565b608081525f61051e60808301876104de565b828103602084015261053081876104de565b6001600160a01b0395909516604084015250506060015292915050565b5f5f6040838503121561055e575f5ffd5b823567ffffffffffffffff811115610574575f5ffd5b61058085828601610419565b925050602083013567ffffffffffffffff81111561059c575f5ffd5b6105a885828601610419565b9150509250929050565b5f82518060208501845e5f920191825250919050565b600181811c908216806105dc57607f821691505b6020821081036105fa57634e487b7160e01b5f52602260045260245ffd5b50919050565b601f82111561064757805f5260205f20601f840160051c810160208510156106255750805b601f840160051c820191505b81811015610644575f8155600101610631565b50505b505050565b815167ffffffffffffffff81111561066657610666610405565b61067a8161067484546105c8565b84610600565b6020601f8211600181146106ac575f83156106955750848201515b5f19600385901b1c1916600184901b178455610644565b5f84815260208120601f198516915b828110156106db57878501518255602094850194600190920191016106bb565b50848210156106f857868401515f19600387901b60f8161c191681555b50505050600190811b0190555056fea2646970667358221220f1e4163d1ff8b5cef2aab703d3e81b4470e9e13118fcb9a8f3d0cc42ea53509264736f6c634300081c0033",
  "linkReferences": {},
  "deployedLinkReferences": {},
  "immutableReferences": {},
  "inputSourceName": "project/contracts/ResearchRegistry.sol",
  "buildInfoId": "solc-0_8_28-24056a30522cb27153e73d82dac64851e108cfaa"
}